{
  "_format": "hh-sol-artifact-1",
  "contractName": "VotingContract",
  "sourceName": "contracts/VotingContract.sol",
  "abi": [
    {
      "inputs": [],
      "stateMutability": "nonpayable",
      "type": "constructor"
    },
    {
      "anonymous": false,
      "inputs": [
        {
          "indexed": true,
          "internalType": "uint256",
          "name": "candidateId",
          "type": "uint256"
        },
        {
          "indexed": false,
          "internalType": "string",
          "name": "name",
          "type": "string"
        }
      ],
      "name": "CandidateAdded",
      "type": "event"
    },
    {
      "anonymous": false,
      "inputs": [
        {
          "indexed": true,
          "internalType": "address",
          "name": "voter",
          "type": "address"
        },
        {
          "indexed": true,
          "internalType": "uint256",
          "name": "candidateId",
          "type": "uint256"
        }
      ],
      "name": "VoteCast",
      "type": "event"
    },
    {
      "anonymous": false,
      "inputs": [
        {
          "indexed": true,
          "internalType": "address",
          "name": "voter",
          "type": "address"
        }
      ],
      "name": "VoterRegistered",
      "type": "event"
    },
    {
      "anonymous": false,
      "inputs": [],
      "name": "VotingStarted",
      "type": "event"
    },
    {
      "anonymous": false,
      "inputs": [],
      "name": "VotingStopped",
      "type": "event"
    },
    {
      "inputs": [
        {
          "internalType": "string",
          "name": "_name",
          "type": "string"
        },
        {
          "internalType": "string",
          "name": "_description",
          "type": "string"
        }
      ],
      "name": "addCandidate",
      "outputs": [],
      "stateMutability": "nonpayable",
      "type": "function"
    },
    {
      "inputs": [],
      "name": "admin",
      "outputs": [
        {
          "internalType": "address",
          "name": "",
          "type": "address"
        }
      ],
      "stateMutability": "view",
      "type": "function"
    },
    {
      "inputs": [
        {
          "internalType": "uint256",
          "name": "",
          "type": "uint256"
        }
      ],
      "name": "candidateIds",
      "outputs": [
        {
          "internalType": "uint256",
          "name": "",
          "type": "uint256"
        }
      ],
      "stateMutability": "view",
      "type": "function"
    },
    {
      "inputs": [
        {
          "internalType": "uint256",
          "name": "",
          "type": "uint256"
        }
      ],
      "name": "candidates",
      "outputs": [
        {
          "internalType": "uint256",
          "name": "id",
          "type": "uint256"
        },
        {
          "internalType": "string",
          "name": "name",
          "type": "string"
        },
        {
          "internalType": "string",
          "name": "description",
          "type": "string"
        },
        {
          "internalType": "uint256",
          "name": "voteCount",
          "type": "uint256"
        },
        {
          "internalType": "bool",
          "name": "exists",
          "type": "bool"
        }
      ],
      "stateMutability": "view",
      "type": "function"
    },
    {
      "inputs": [],
      "name": "electionName",
      "outputs": [
        {
          "internalType": "string",
          "name": "",
          "type": "string"
        }
      ],
      "stateMutability": "view",
      "type": "function"
    },
    {
      "inputs": [],
      "name": "getAllCandidates",
      "outputs": [
        {
          "internalType": "uint256[]",
          "name": "",
          "type": "uint256[]"
        }
      ],
      "stateMutability": "view",
      "type": "function"
    },
    {
      "inputs": [
        {
          "internalType": "uint256",
          "name": "_candidateId",
          "type": "uint256"
        }
      ],
      "name": "getCandidate",
      "outputs": [
        {
          "internalType": "uint256",
          "name": "id",
          "type": "uint256"
        },
        {
          "internalType": "string",
          "name": "name",
          "type": "string"
        },
        {
          "internalType": "string",
          "name": "description",
          "type": "string"
        },
        {
          "internalType": "uint256",
          "name": "voteCount",
          "type": "uint256"
        }
      ],
      "stateMutability": "view",
      "type": "function"
    },
    {
      "inputs": [],
      "name": "getCandidateCount",
      "outputs": [
        {
          "internalType": "uint256",
          "name": "",
          "type": "uint256"
        }
      ],
      "stateMutability": "view",
      "type": "function"
    },
    {
      "inputs": [],
      "name": "getResults",
      "outputs": [
        {
          "internalType": "uint256[]",
          "name": "ids",
          "type": "uint256[]"
        },
        {
          "internalType": "string[]",
          "name": "names",
          "type": "string[]"
        },
        {
          "internalType": "uint256[]",
          "name": "voteCounts",
          "type": "uint256[]"
        }
      ],
      "stateMutability": "view",
      "type": "function"
    },
    {
      "inputs": [
        {
          "internalType": "address",
          "name": "_voter",
          "type": "address"
        }
      ],
      "name": "getVoterInfo",
      "outputs": [
        {
          "internalType": "bool",
          "name": "isRegistered",
          "type": "bool"
        },
        {
          "internalType": "bool",
          "name": "hasVoted",
          "type": "bool"
        },
        {
          "internalType": "uint256",
          "name": "votedFor",
          "type": "uint256"
        }
      ],
      "stateMutability": "view",
      "type": "function"
    },
    {
      "inputs": [],
      "name": "getWinner",
      "outputs": [
        {
          "internalType": "uint256",
          "name": "winnerId",
          "type": "uint256"
        },
        {
          "internalType": "string",
          "name": "winnerName",
          "type": "string"
        },
        {
          "internalType": "uint256",
          "name": "winnerVotes",
          "type": "uint256"
        }
      ],
      "stateMutability": "view",
      "type": "function"
    },
    {
      "inputs": [
        {
          "internalType": "address[]",
          "name": "_voters",
          "type": "address[]"
        }
      ],
      "name": "registerMultipleVoters",
      "outputs": [],
      "stateMutability": "nonpayable",
      "type": "function"
    },
    {
      "inputs": [
        {
          "internalType": "address",
          "name": "_voter",
          "type": "address"
        }
      ],
      "name": "registerVoter",
      "outputs": [],
      "stateMutability": "nonpayable",
      "type": "function"
    },
    {
      "inputs": [
        {
          "internalType": "string",
          "name": "_name",
          "type": "string"
        }
      ],
      "name": "setElectionName",
      "outputs": [],
      "stateMutability": "nonpayable",
      "type": "function"
    },
    {
      "inputs": [],
      "name": "startVoting",
      "outputs": [],
      "stateMutability": "nonpayable",
      "type": "function"
    },
    {
      "inputs": [],
      "name": "stopVoting",
      "outputs": [],
      "stateMutability": "nonpayable",
      "type": "function"
    },
    {
      "inputs": [],
      "name": "totalVotes",
      "outputs": [
        {
          "internalType": "uint256",
          "name": "",
          "type": "uint256"
        }
      ],
      "stateMutability": "view",
      "type": "function"
    },
    {
      "inputs": [
        {
          "internalType": "uint256",
          "name": "_candidateId",
          "type": "uint256"
        }
      ],
      "name": "vote",
      "outputs": [],
      "stateMutability": "nonpayable",
      "type": "function"
    },
    {
      "inputs": [
        {
          "internalType": "address",
          "name": "",
          "type": "address"
        }
      ],
      "name": "voters",
      "outputs": [
        {
          "internalType": "bool",
          "name": "isRegistered",
          "type": "bool"
        },
        {
          "internalType": "bool",
          "name": "hasVoted",
          "type": "bool"
        },
        {
          "internalType": "uint256",
          "name": "votedFor",
          "type": "uint256"
        }
      ],
      "stateMutability": "view",
      "type": "function"
    },
    {
      "inputs": [],
      "name": "votingActive",
      "outputs": [
        {
          "internalType": "bool",
          "name": "",
          "type": "bool"
        }
      ],
      "stateMutability": "view",
      "type": "function"
    }
  ],
  "bytecode": "0x60806040523480156200001157600080fd5b50600080546001600160a01b0319163317905560408051808201909152601081526f2232b330bab63a1022b632b1ba34b7b760811b60208201526001906200005a90826200011a565b506002805460ff1916905560006003819055600455620001e6565b634e487b7160e01b600052604160045260246000fd5b600181811c90821680620000a057607f821691505b602082108103620000c157634e487b7160e01b600052602260045260246000fd5b50919050565b601f8211156200011557600081815260208120601f850160051c81016020861015620000f05750805b601f850160051c820191505b818110156200011157828155600101620000fc565b5050505b505050565b81516001600160401b0381111562000136576200013662000075565b6200014e816200014784546200008b565b84620000c7565b602080601f8311600181146200018657600084156200016d5750858301515b600019600386901b1c1916600185901b17855562000111565b600085815260208120601f198616915b82811015620001b75788860151825594840194600190910190840162000196565b5085821015620001d65787850151600019600388901b60f8161c191681555b5050505050600190811b01905550565b611a9e80620001f66000396000f3fe608060405234801561001057600080fd5b506004361061012c5760003560e01c806338db6dd3116100ad5780639ed1f255116100715780639ed1f2551461027a578063a3ec138d146102f4578063f225c1f814610328578063f851a4401461033b578063fab2f86b1461036657600080fd5b806338db6dd314610207578063408e27271461021a5780634717f97c1461023757806385e8e7a71461024e5780638e7ea5b21461026357600080fd5b806326541b56116100f457806326541b56146101905780632e6997fe146101a357806330a56347146101b85780633477ee2e146101c057806335b8e820146101e457600080fd5b80630121b93f146101315780630301613014610146578063031a13741461016c5780630d15fd771461017f5780631ec6b60a14610188575b600080fd5b61014461013f36600461146d565b61036e565b005b61015961015436600461146d565b61055b565b6040519081526020015b60405180910390f35b61014461017a36600461153d565b61057c565b61015960035481565b6101446105b6565b61014461019e36600461157a565b6106ba565b6101ab6108ae565b6040516101639190611619565b600754610159565b6101d36101ce36600461146d565b610906565b604051610163959493929190611679565b6101f76101f236600461146d565b610a49565b60405161016394939291906116be565b610144610215366004611717565b610c38565b6002546102279060ff1681565b6040519015158152602001610163565b61023f610d57565b60405161016393929190611732565b610256611007565b60405161016391906117b7565b61026b611095565b604051610163939291906117ca565b6102d7610288366004611717565b6001600160a01b03166000908152600660209081526040918290208251606081018452815460ff8082161515808452610100909204161515938201849052600190920154930183905292909190565b604080519315158452911515602084015290820152606001610163565b6102d7610302366004611717565b6006602052600090815260409020805460019091015460ff808316926101009004169083565b6101446103363660046117f3565b611259565b60005461034e906001600160a01b031681565b6040516001600160a01b039091168152602001610163565b6101446113c5565b3360009081526006602052604090205460ff166103c95760405162461bcd60e51b8152602060048201526014602482015273159bdd195c881b9bdd081c9959da5cdd195c995960621b60448201526064015b60405180910390fd5b60025460ff166104125760405162461bcd60e51b8152602060048201526014602482015273566f74696e67206973206e6f742061637469766560601b60448201526064016103c0565b33600090815260066020526040902054610100900460ff16156104775760405162461bcd60e51b815260206004820152601760248201527f566f7465722068617320616c726561647920766f74656400000000000000000060448201526064016103c0565b60008181526005602052604090206004015460ff166104d35760405162461bcd60e51b815260206004820152601860248201527710d85b991a59185d1948191bd95cc81b9bdd08195e1a5cdd60421b60448201526064016103c0565b336000908152600660209081526040808320805461ff00191661010017815560010184905583835260059091528120600301805491610511836118a0565b909155505060038054906000610526836118a0565b9091555050604051819033907fa36cc2bebb74db33e9f88110a07ef56e1b31b24b4c4f51b54b1664266e29f45b90600090a350565b6007818154811061056b57600080fd5b600091825260209091200154905081565b6000546001600160a01b031633146105a65760405162461bcd60e51b81526004016103c0906118c7565b60016105b28282611992565b5050565b6000546001600160a01b031633146105e05760405162461bcd60e51b81526004016103c0906118c7565b60025460ff16156106335760405162461bcd60e51b815260206004820152601860248201527f566f74696e6720697320616c726561647920616374697665000000000000000060448201526064016103c0565b6007546106825760405162461bcd60e51b815260206004820152601860248201527f4e6f2063616e646964617465732072656769737465726564000000000000000060448201526064016103c0565b6002805460ff191660011790556040517f877e2548498f42b7975a186b94ef1d32c86d420b7b806dd2be2bea293b89590490600090a1565b6000546001600160a01b031633146106e45760405162461bcd60e51b81526004016103c0906118c7565b60025460ff161561074a5760405162461bcd60e51b815260206004820152602a60248201527f43616e6e6f74206164642063616e6469646174657320647572696e672061637460448201526969766520766f74696e6760b01b60648201526084016103c0565b600082511161079b5760405162461bcd60e51b815260206004820152601e60248201527f43616e646964617465206e616d652063616e6e6f7420626520656d707479000060448201526064016103c0565b600480549060006107ab836118a0565b90915550506040805160a08101825260045480825260208083018681528385018690526000606085018190526001608086018190529381526005909252939020825181559251919291908201906108029082611992565b50604082015160028201906108179082611992565b50606082015160038201556080909101516004918201805460ff191691151591909117905554600780546001810182556000919091527fa66cc928b5edb82af9bd49922954155ab7b0942694bea4ce44661d9a8736c688018190556040517fe83b2a43e7e82d975c8a0a6d2f045153c869e111136a34d1889ab7b598e396a3906108a29085906117b7565b60405180910390a25050565b606060078054806020026020016040519081016040528092919081815260200182805480156108fc57602002820191906000526020600020905b8154815260200190600101908083116108e8575b5050505050905090565b6005602052600090815260409020805460018201805491929161092890611909565b80601f016020809104026020016040519081016040528092919081815260200182805461095490611909565b80156109a15780601f10610976576101008083540402835291602001916109a1565b820191906000526020600020905b81548152906001019060200180831161098457829003601f168201915b5050505050908060020180546109b690611909565b80601f01602080910402602001604051908101604052809291908181526020018280546109e290611909565b8015610a2f5780601f10610a0457610100808354040283529160200191610a2f565b820191906000526020600020905b815481529060010190602001808311610a1257829003601f168201915b50505050600383015460049093015491929160ff16905085565b6000818152600560205260408120600401546060908190839060ff16610aac5760405162461bcd60e51b815260206004820152601860248201527710d85b991a59185d1948191bd95cc81b9bdd08195e1a5cdd60421b60448201526064016103c0565b6000600560008781526020019081526020016000206040518060a001604052908160008201548152602001600182018054610ae690611909565b80601f0160208091040260200160405190810160405280929190818152602001828054610b1290611909565b8015610b5f5780601f10610b3457610100808354040283529160200191610b5f565b820191906000526020600020905b815481529060010190602001808311610b4257829003601f168201915b50505050508152602001600282018054610b7890611909565b80601f0160208091040260200160405190810160405280929190818152602001828054610ba490611909565b8015610bf15780601f10610bc657610100808354040283529160200191610bf1565b820191906000526020600020905b815481529060010190602001808311610bd457829003601f168201915b5050509183525050600382015460208083019190915260049092015460ff161515604091820152825191830151908301516060909301519199909850919650945092505050565b6000546001600160a01b03163314610c625760405162461bcd60e51b81526004016103c0906118c7565b6001600160a01b03811660009081526006602052604090205460ff1615610ccb5760405162461bcd60e51b815260206004820152601860248201527f566f74657220616c72656164792072656769737465726564000000000000000060448201526064016103c0565b604080516060810182526001808252600060208084018281528486018381526001600160a01b038816808552600690935286842095518654925161ffff1990931690151561ff001916176101009215159290920291909117855551939092019290925591517fb6be2187d059cc2a55fe29e0e503b566e1e0f8c8780096e185429350acffd3dd9190a250565b6002546060908190819060ff161580610d7a57506000546001600160a01b031633145b610dbf5760405162461bcd60e51b8152602060048201526016602482015275566f74696e67206973207374696c6c2061637469766560501b60448201526064016103c0565b6007548067ffffffffffffffff811115610ddb57610ddb611486565b604051908082528060200260200182016040528015610e04578160200160208202803683370190505b5093508067ffffffffffffffff811115610e2057610e20611486565b604051908082528060200260200182016040528015610e5357816020015b6060815260200190600190039081610e3e5790505b5092508067ffffffffffffffff811115610e6f57610e6f611486565b604051908082528060200260200182016040528015610e98578160200160208202803683370190505b50915060005b8181101561100057600060078281548110610ebb57610ebb611a52565b906000526020600020015490506005600082815260200190815260200160002060000154868381518110610ef157610ef1611a52565b602002602001018181525050600560008281526020019081526020016000206001018054610f1e90611909565b80601f0160208091040260200160405190810160405280929190818152602001828054610f4a90611909565b8015610f975780601f10610f6c57610100808354040283529160200191610f97565b820191906000526020600020905b815481529060010190602001808311610f7a57829003601f168201915b5050505050858381518110610fae57610fae611a52565b60200260200101819052506005600082815260200190815260200160002060030154848381518110610fe257610fe2611a52565b60209081029190910101525080610ff8816118a0565b915050610e9e565b5050909192565b6001805461101490611909565b80601f016020809104026020016040519081016040528092919081815260200182805461104090611909565b801561108d5780601f106110625761010080835404028352916020019161108d565b820191906000526020600020905b81548152906001019060200180831161107057829003601f168201915b505050505081565b600254600090606090829060ff16156110e95760405162461bcd60e51b8152602060048201526016602482015275566f74696e67206973207374696c6c2061637469766560501b60448201526064016103c0565b6007546111285760405162461bcd60e51b815260206004820152600d60248201526c4e6f2063616e6469646174657360981b60448201526064016103c0565b60008060005b6007548110156111a35760006007828154811061114d5761114d611a52565b9060005260206000200154905083600560008381526020019081526020016000206003015411156111905760008181526005602052604090206003015493509150815b508061119b816118a0565b91505061112e565b50600081815260056020526040902060038101546001909101805483929082906111cc90611909565b80601f01602080910402602001604051908101604052809291908181526020018280546111f890611909565b80156112455780601f1061121a57610100808354040283529160200191611245565b820191906000526020600020905b81548152906001019060200180831161122857829003601f168201915b505050505091509450945094505050909192565b6000546001600160a01b031633146112835760405162461bcd60e51b81526004016103c0906118c7565b60005b81518110156105b257600660008383815181106112a5576112a5611a52565b6020908102919091018101516001600160a01b031682528101919091526040016000205460ff166113b357604051806060016040528060011515815260200160001515815260200160008152506006600084848151811061130857611308611a52565b6020908102919091018101516001600160a01b03168252818101929092526040908101600020835181549385015161ffff1990941690151561ff00191617610100931515939093029290921782559190910151600190910155815182908290811061137557611375611a52565b60200260200101516001600160a01b03167fb6be2187d059cc2a55fe29e0e503b566e1e0f8c8780096e185429350acffd3dd60405160405180910390a25b806113bd816118a0565b915050611286565b6000546001600160a01b031633146113ef5760405162461bcd60e51b81526004016103c0906118c7565b60025460ff166114385760405162461bcd60e51b8152602060048201526014602482015273566f74696e67206973206e6f742061637469766560601b60448201526064016103c0565b6002805460ff191690556040517f06511302781925bd62e07aef472aa49b9a036f97fcaf7bd34cabe20ac447679190600090a1565b60006020828403121561147f57600080fd5b5035919050565b634e487b7160e01b600052604160045260246000fd5b604051601f8201601f1916810167ffffffffffffffff811182821017156114c5576114c5611486565b604052919050565b600082601f8301126114de57600080fd5b813567ffffffffffffffff8111156114f8576114f8611486565b61150b601f8201601f191660200161149c565b81815284602083860101111561152057600080fd5b816020850160208301376000918101602001919091529392505050565b60006020828403121561154f57600080fd5b813567ffffffffffffffff81111561156657600080fd5b611572848285016114cd565b949350505050565b6000806040838503121561158d57600080fd5b823567ffffffffffffffff808211156115a557600080fd5b6115b1868387016114cd565b935060208501359150808211156115c757600080fd5b506115d4858286016114cd565b9150509250929050565b600081518084526020808501945080840160005b8381101561160e578151875295820195908201906001016115f2565b509495945050505050565b60208152600061162c60208301846115de565b9392505050565b6000815180845260005b818110156116595760208185018101518683018201520161163d565b506000602082860101526020601f19601f83011685010191505092915050565b85815260a06020820152600061169260a0830187611633565b82810360408401526116a48187611633565b606084019590955250509015156080909101529392505050565b8481526080602082015260006116d76080830186611633565b82810360408401526116e98186611633565b91505082606083015295945050505050565b80356001600160a01b038116811461171257600080fd5b919050565b60006020828403121561172957600080fd5b61162c826116fb565b60608152600061174560608301866115de565b6020838203818501528186518084528284019150828160051b85010183890160005b8381101561179557601f19878403018552611783838351611633565b94860194925090850190600101611767565b505086810360408801526117a981896115de565b9a9950505050505050505050565b60208152600061162c6020830184611633565b8381526060602082015260006117e36060830185611633565b9050826040830152949350505050565b6000602080838503121561180657600080fd5b823567ffffffffffffffff8082111561181e57600080fd5b818501915085601f83011261183257600080fd5b81358181111561184457611844611486565b8060051b915061185584830161149c565b818152918301840191848101908884111561186f57600080fd5b938501935b8385101561189457611885856116fb565b82529385019390850190611874565b98975050505050505050565b6000600182016118c057634e487b7160e01b600052601160045260246000fd5b5060010190565b60208082526022908201527f4f6e6c792061646d696e2063616e20706572666f726d2074686973206163746960408201526137b760f11b606082015260800190565b600181811c9082168061191d57607f821691505b60208210810361193d57634e487b7160e01b600052602260045260246000fd5b50919050565b601f82111561198d57600081815260208120601f850160051c8101602086101561196a5750805b601f850160051c820191505b8181101561198957828155600101611976565b5050505b505050565b815167ffffffffffffffff8111156119ac576119ac611486565b6119c0816119ba8454611909565b84611943565b602080601f8311600181146119f557600084156119dd5750858301515b600019600386901b1c1916600185901b178555611989565b600085815260208120601f198616915b82811015611a2457888601518255948401946001909101908401611a05565b5085821015611a425787850151600019600388901b60f8161c191681555b5050505050600190811b01905550565b634e487b7160e01b600052603260045260246000fdfea2646970667358221220e6af47bd70915e9a3f37dac8efedb345b36153387611f71537f20fc8e726e8ac64736f6c63430008130033",
  "linkReferences": {},
  "deployedLinkReferences": {}
}