{
  "_format": "hh-sol-artifact-1",
  "contractName": "VotingContract",
  "sourceName": "contracts/VotingContract.sol",
  "abi": [
    {
      "inputs": [],
      "stateMutability": "nonpayable",
      "type": "constructor"
    },
    {
      "anonymous": false,
      "inputs": [
        {
          "indexed": true,
          "internalType": "uint256",
          "name": "candidateId",
          "type": "uint256"
        },
        {
          "indexed": false,
          "internalType": "string",
          "name": "name",
          "type": "string"
        }
      ],
      "name": "CandidateAdded",
      "type": "event"
    },
    {
      "anonymous": false,
      "inputs": [
        {
          "indexed": true,
          "internalType": "address",
          "name": "voter",
          "type": "address"
        },
        {
          "indexed": true,
          "internalType": "uint256",
          "name": "candidateId",
          "type": "uint256"
        }
      ],
      "name": "VoteCast",
      "type": "event"
    },
    {
      "anonymous": false,
      "inputs": [
        {
          "indexed": true,
          "internalType": "address",
          "name": "voter",
          "type": "address"
        }
      ],
      "name": "VoterRegistered",
      "type": "event"
    },
    {
      "anonymous": false,
      "inputs": [],
      "name": "VotingStarted",
      "type": "event"
    },
    {
      "anonymous": false,
      "inputs": [],
      "name": "VotingStopped",
      "type": "event"
    },
    {
      "inputs": [
        {
          "internalType": "string",
          "name": "_name",
          "type": "string"
        },
        {
          "internalType": "string",
          "name": "_description",
          "type": "string"
        }
      ],
      "name": "addCandidate",
      "outputs": [],
      "stateMutability": "nonpayable",
      "type": "function"
    },
    {
      "inputs": [],
      "name": "admin",
      "outputs": [
        {
          "internalType": "address",
          "name": "",
          "type": "address"
        }
      ],
      "stateMutability": "view",
      "type": "function"
    },
    {
      "inputs": [
        {
          "internalType": "uint256",
          "name": "",
          "type": "uint256"
        }
      ],
      "name": "candidateIds",
      "outputs": [
        {
          "internalType": "uint256",
          "name": "",
          "type": "uint256"
        }
      ],
      "stateMutability": "view",
      "type": "function"
    },
    {
      "inputs": [
        {
          "internalType": "uint256",
          "name": "",
          "type": "uint256"
        }
      ],
      "name": "candidates",
      "outputs": [
        {
          "internalType": "uint256",
          "name": "id",
          "type": "uint256"
        },
        {
          "internalType": "string",
          "name": "name",
          "type": "string"
        },
        {
          "internalType": "string",
          "name": "description",
          "type": "string"
        },
        {
          "internalType": "uint256",
          "name": "voteCount",
          "type": "uint256"
        },
        {
          "internalType": "bool",
          "name": "exists",
          "type": "bool"
        }
      ],
      "stateMutability": "view",
      "type": "function"
    },
    {
      "inputs": [],
      "name": "electionName",
      "outputs": [
        {
          "internalType": "string",
          "name": "",
          "type": "string"
        }
      ],
      "stateMutability": "view",
      "type": "function"
    },
    {
      "inputs": [],
      "name": "getAllCandidates",
      "outputs": [
        {
          "internalType": "uint256[]",
          "name": "",
          "type": "uint256[]"
        }
      ],
      "stateMutability": "view",
      "type": "function"
    },
    {
      "inputs": [],
      "name": "getAllCandidatesDetails",
      "outputs": [
        {
          "internalType": "uint256[]",
          "name": "ids",
          "type": "uint256[]"
        },
        {
          "internalType": "string[]",
          "name": "names",
          "type": "string[]"
        },
        {
          "internalType": "string[]",
          "name": "descriptions",
          "type": "string[]"
        },
        {
          "internalType": "uint256[]",
          "name": "voteCounts",
          "type": "uint256[]"
        }
      ],
      "stateMutability": "view",
      "type": "function"
    },
    {
      "inputs": [
        {
          "internalType": "uint256",
          "name": "_candidateId",
          "type": "uint256"
        }
      ],
      "name": "getCandidate",
      "outputs": [
        {
          "internalType": "uint256",
          "name": "id",
          "type": "uint256"
        },
        {
          "internalType": "string",
          "name": "name",
          "type": "string"
        },
        {
          "internalType": "string",
          "name": "description",
          "type": "string"
        },
        {
          "internalType": "uint256",
          "name": "voteCount",
          "type": "uint256"
        }
      ],
      "stateMutability": "view",
      "type": "function"
    },
    {
      "inputs": [],
      "name": "getCandidateCount",
      "outputs": [
        {
          "internalType": "uint256",
          "name": "",
          "type": "uint256"
        }
      ],
      "stateMutability": "view",
      "type": "function"
    },
    {
      "inputs": [],
      "name": "getResults",
      "outputs": [
        {
          "internalType": "uint256[]",
          "name": "ids",
          "type": "uint256[]"
        },
        {
          "internalType": "string[]",
          "name": "names",
          "type": "string[]"
        },
        {
          "internalType": "uint256[]",
          "name": "voteCounts",
          "type": "uint256[]"
        }
      ],
      "stateMutability": "view",
      "type": "function"
    },
    {
      "inputs": [
        {
          "internalType": "address",
          "name": "_voter",
          "type": "address"
        }
      ],
      "name": "getVoterInfo",
      "outputs": [
        {
          "internalType": "bool",
          "name": "isRegistered",
          "type": "bool"
        },
        {
          "internalType": "bool",
          "name": "hasVoted",
          "type": "bool"
        },
        {
          "internalType": "uint256",
          "name": "votedFor",
          "type": "uint256"
        }
      ],
      "stateMutability": "view",
      "type": "function"
    },
    {
      "inputs": [],
      "name": "getWinner",
      "outputs": [
        {
          "internalType": "uint256",
          "name": "winnerId",
          "type": "uint256"
        },
        {
          "internalType": "string",
          "name": "winnerName",
          "type": "string"
        },
        {
          "internalType": "uint256",
          "name": "winnerVotes",
          "type": "uint256"
        }
      ],
      "stateMutability": "view",
      "type": "function"
    },
    {
      "inputs": [],
      "name": "owner",
      "outputs": [
        {
          "internalType": "address",
          "name": "",
          "type": "address"
        }
      ],
      "stateMutability": "view",
      "type": "function"
    },
    {
      "inputs": [
        {
          "internalType": "address[]",
          "name": "_voters",
          "type": "address[]"
        }
      ],
      "name": "registerMultipleVoters",
      "outputs": [],
      "stateMutability": "nonpayable",
      "type": "function"
    },
    {
      "inputs": [
        {
          "internalType": "address",
          "name": "_voter",
          "type": "address"
        }
      ],
      "name": "registerVoter",
      "outputs": [],
      "stateMutability": "nonpayable",
      "type": "function"
    },
    {
      "inputs": [],
      "name": "resetContract",
      "outputs": [],
      "stateMutability": "nonpayable",
      "type": "function"
    },
    {
      "inputs": [
        {
          "internalType": "string",
          "name": "_name",
          "type": "string"
        }
      ],
      "name": "setElectionName",
      "outputs": [],
      "stateMutability": "nonpayable",
      "type": "function"
    },
    {
      "inputs": [],
      "name": "startVoting",
      "outputs": [],
      "stateMutability": "nonpayable",
      "type": "function"
    },
    {
      "inputs": [],
      "name": "stopVoting",
      "outputs": [],
      "stateMutability": "nonpayable",
      "type": "function"
    },
    {
      "inputs": [],
      "name": "totalVotes",
      "outputs": [
        {
          "internalType": "uint256",
          "name": "",
          "type": "uint256"
        }
      ],
      "stateMutability": "view",
      "type": "function"
    },
    {
      "inputs": [
        {
          "internalType": "uint256",
          "name": "_candidateId",
          "type": "uint256"
        }
      ],
      "name": "vote",
      "outputs": [],
      "stateMutability": "nonpayable",
      "type": "function"
    },
    {
      "inputs": [
        {
          "internalType": "address",
          "name": "",
          "type": "address"
        }
      ],
      "name": "voters",
      "outputs": [
        {
          "internalType": "bool",
          "name": "isRegistered",
          "type": "bool"
        },
        {
          "internalType": "bool",
          "name": "hasVoted",
          "type": "bool"
        },
        {
          "internalType": "uint256",
          "name": "votedFor",
          "type": "uint256"
        }
      ],
      "stateMutability": "view",
      "type": "function"
    },
    {
      "inputs": [],
      "name": "votingActive",
      "outputs": [
        {
          "internalType": "bool",
          "name": "",
          "type": "bool"
        }
      ],
      "stateMutability": "view",
      "type": "function"
    },
    {
      "inputs": [],
      "name": "workflowStatus",
      "outputs": [
        {
          "internalType": "uint256",
          "name": "",
          "type": "uint256"
        }
      ],
      "stateMutability": "view",
      "type": "function"
    }
  ],
  "bytecode": "0x60806040523480156200001157600080fd5b50600080546001600160a01b0319163317905560408051808201909152601081526f2232b330bab63a1022b632b1ba34b7b760811b60208201526001906200005a90826200011a565b506002805460ff1916905560006003819055600455620001e6565b634e487b7160e01b600052604160045260246000fd5b600181811c90821680620000a057607f821691505b602082108103620000c157634e487b7160e01b600052602260045260246000fd5b50919050565b601f8211156200011557600081815260208120601f850160051c81016020861015620000f05750805b601f850160051c820191505b818110156200011157828155600101620000fc565b5050505b505050565b81516001600160401b0381111562000136576200013662000075565b6200014e816200014784546200008b565b84620000c7565b602080601f8311600181146200018657600084156200016d5750858301515b600019600386901b1c1916600185901b17855562000111565b600085815260208120601f198616915b82811015620001b75788860151825594840194600190910190840162000196565b5085821015620001d65787850151600019600388901b60f8161c191681555b5050505050600190811b01905550565b61206a80620001f66000396000f3fe608060405234801561001057600080fd5b50600436106101585760003560e01c80634717f97c116100c3578063a3ec138d1161007c578063a3ec138d1461034d578063b181a8fc14610381578063cba5cf9914610389578063f225c1f8146103a1578063f851a440146103b4578063fab2f86b146103c757600080fd5b80634717f97c1461026357806385e8e7a71461027a5780638da5cb5b1461028f5780638e7ea5b2146102b45780639ed1f255146102cb578063a1edffa21461034557600080fd5b80632e6997fe116101155780632e6997fe146101cf57806330a56347146101e45780633477ee2e146101ec57806335b8e8201461021057806338db6dd314610233578063408e27271461024657600080fd5b80630121b93f1461015d5780630301613014610172578063031a1374146101985780630d15fd77146101ab5780631ec6b60a146101b457806326541b56146101bc575b600080fd5b61017061016b3660046119d4565b6103cf565b005b6101856101803660046119d4565b6105bc565b6040519081526020015b60405180910390f35b6101706101a6366004611aa2565b6105dd565b61018560035481565b610170610617565b6101706101ca366004611ade565b61071b565b6101d761090f565b60405161018f9190611b7c565b600754610185565b6101ff6101fa3660046119d4565b610967565b60405161018f959493929190611bdc565b61022361021e3660046119d4565b610aaa565b60405161018f9493929190611c21565b610170610241366004611c7a565b610c99565b6002546102539060ff1681565b604051901515815260200161018f565b61026b610db8565b60405161018f93929190611cea565b610282611065565b60405161018f9190611d2d565b6000546001600160a01b03165b6040516001600160a01b03909116815260200161018f565b6102bc6110f3565b60405161018f93929190611d40565b6103286102d9366004611c7a565b6001600160a01b03166000908152600660209081526040918290208251606081018452815460ff8082161515808452610100909204161515938201849052600190920154930183905292909190565b60408051931515845291151560208401529082015260600161018f565b6101856112b7565b61032861035b366004611c7a565b6006602052600090815260409020805460019091015460ff808316926101009004169083565b6101706112ef565b6103916113fa565b60405161018f9493929190611d69565b6101706103af366004611dc1565b611753565b60005461029c906001600160a01b031681565b6101706118bf565b3360009081526006602052604090205460ff1661042a5760405162461bcd60e51b8152602060048201526014602482015273159bdd195c881b9bdd081c9959da5cdd195c995960621b60448201526064015b60405180910390fd5b60025460ff166104735760405162461bcd60e51b8152602060048201526014602482015273566f74696e67206973206e6f742061637469766560601b6044820152606401610421565b33600090815260066020526040902054610100900460ff16156104d85760405162461bcd60e51b815260206004820152601760248201527f566f7465722068617320616c726561647920766f7465640000000000000000006044820152606401610421565b60008181526005602052604090206004015460ff166105345760405162461bcd60e51b815260206004820152601860248201527710d85b991a59185d1948191bd95cc81b9bdd08195e1a5cdd60421b6044820152606401610421565b336000908152600660209081526040808320805461ff0019166101001781556001018490558383526005909152812060030180549161057283611e6d565b90915550506003805490600061058783611e6d565b9091555050604051819033907fa36cc2bebb74db33e9f88110a07ef56e1b31b24b4c4f51b54b1664266e29f45b90600090a350565b600781815481106105cc57600080fd5b600091825260209091200154905081565b6000546001600160a01b031633146106075760405162461bcd60e51b815260040161042190611e94565b60016106138282611f5f565b5050565b6000546001600160a01b031633146106415760405162461bcd60e51b815260040161042190611e94565b60025460ff16156106945760405162461bcd60e51b815260206004820152601860248201527f566f74696e6720697320616c72656164792061637469766500000000000000006044820152606401610421565b6007546106e35760405162461bcd60e51b815260206004820152601860248201527f4e6f2063616e64696461746573207265676973746572656400000000000000006044820152606401610421565b6002805460ff191660011790556040517f877e2548498f42b7975a186b94ef1d32c86d420b7b806dd2be2bea293b89590490600090a1565b6000546001600160a01b031633146107455760405162461bcd60e51b815260040161042190611e94565b60025460ff16156107ab5760405162461bcd60e51b815260206004820152602a60248201527f43616e6e6f74206164642063616e6469646174657320647572696e672061637460448201526969766520766f74696e6760b01b6064820152608401610421565b60008251116107fc5760405162461bcd60e51b815260206004820152601e60248201527f43616e646964617465206e616d652063616e6e6f7420626520656d70747900006044820152606401610421565b6004805490600061080c83611e6d565b90915550506040805160a08101825260045480825260208083018681528385018690526000606085018190526001608086018190529381526005909252939020825181559251919291908201906108639082611f5f565b50604082015160028201906108789082611f5f565b50606082015160038201556080909101516004918201805460ff191691151591909117905554600780546001810182556000919091527fa66cc928b5edb82af9bd49922954155ab7b0942694bea4ce44661d9a8736c688018190556040517fe83b2a43e7e82d975c8a0a6d2f045153c869e111136a34d1889ab7b598e396a390610903908590611d2d565b60405180910390a25050565b6060600780548060200260200160405190810160405280929190818152602001828054801561095d57602002820191906000526020600020905b815481526020019060010190808311610949575b5050505050905090565b6005602052600090815260409020805460018201805491929161098990611ed6565b80601f01602080910402602001604051908101604052809291908181526020018280546109b590611ed6565b8015610a025780601f106109d757610100808354040283529160200191610a02565b820191906000526020600020905b8154815290600101906020018083116109e557829003601f168201915b505050505090806002018054610a1790611ed6565b80601f0160208091040260200160405190810160405280929190818152602001828054610a4390611ed6565b8015610a905780601f10610a6557610100808354040283529160200191610a90565b820191906000526020600020905b815481529060010190602001808311610a7357829003601f168201915b50505050600383015460049093015491929160ff16905085565b6000818152600560205260408120600401546060908190839060ff16610b0d5760405162461bcd60e51b815260206004820152601860248201527710d85b991a59185d1948191bd95cc81b9bdd08195e1a5cdd60421b6044820152606401610421565b6000600560008781526020019081526020016000206040518060a001604052908160008201548152602001600182018054610b4790611ed6565b80601f0160208091040260200160405190810160405280929190818152602001828054610b7390611ed6565b8015610bc05780601f10610b9557610100808354040283529160200191610bc0565b820191906000526020600020905b815481529060010190602001808311610ba357829003601f168201915b50505050508152602001600282018054610bd990611ed6565b80601f0160208091040260200160405190810160405280929190818152602001828054610c0590611ed6565b8015610c525780601f10610c2757610100808354040283529160200191610c52565b820191906000526020600020905b815481529060010190602001808311610c3557829003601f168201915b5050509183525050600382015460208083019190915260049092015460ff161515604091820152825191830151908301516060909301519199909850919650945092505050565b6000546001600160a01b03163314610cc35760405162461bcd60e51b815260040161042190611e94565b6001600160a01b03811660009081526006602052604090205460ff1615610d2c5760405162461bcd60e51b815260206004820152601860248201527f566f74657220616c7265616479207265676973746572656400000000000000006044820152606401610421565b604080516060810182526001808252600060208084018281528486018381526001600160a01b038816808552600690935286842095518654925161ffff1990931690151561ff001916176101009215159290920291909117855551939092019290925591517fb6be2187d059cc2a55fe29e0e503b566e1e0f8c8780096e185429350acffd3dd9190a250565b6002546060908190819060ff161580610ddb57506000546001600160a01b031633145b610e205760405162461bcd60e51b8152602060048201526016602482015275566f74696e67206973207374696c6c2061637469766560501b6044820152606401610421565b600754806001600160401b03811115610e3b57610e3b6119ed565b604051908082528060200260200182016040528015610e64578160200160208202803683370190505b509350806001600160401b03811115610e7f57610e7f6119ed565b604051908082528060200260200182016040528015610eb257816020015b6060815260200190600190039081610e9d5790505b509250806001600160401b03811115610ecd57610ecd6119ed565b604051908082528060200260200182016040528015610ef6578160200160208202803683370190505b50915060005b8181101561105e57600060078281548110610f1957610f1961201e565b906000526020600020015490506005600082815260200190815260200160002060000154868381518110610f4f57610f4f61201e565b602002602001018181525050600560008281526020019081526020016000206001018054610f7c90611ed6565b80601f0160208091040260200160405190810160405280929190818152602001828054610fa890611ed6565b8015610ff55780601f10610fca57610100808354040283529160200191610ff5565b820191906000526020600020905b815481529060010190602001808311610fd857829003601f168201915b505050505085838151811061100c5761100c61201e565b602002602001018190525060056000828152602001908152602001600020600301548483815181106110405761104061201e565b6020908102919091010152508061105681611e6d565b915050610efc565b5050909192565b6001805461107290611ed6565b80601f016020809104026020016040519081016040528092919081815260200182805461109e90611ed6565b80156110eb5780601f106110c0576101008083540402835291602001916110eb565b820191906000526020600020905b8154815290600101906020018083116110ce57829003601f168201915b505050505081565b600254600090606090829060ff16156111475760405162461bcd60e51b8152602060048201526016602482015275566f74696e67206973207374696c6c2061637469766560501b6044820152606401610421565b6007546111865760405162461bcd60e51b815260206004820152600d60248201526c4e6f2063616e6469646174657360981b6044820152606401610421565b60008060005b600754811015611201576000600782815481106111ab576111ab61201e565b9060005260206000200154905083600560008381526020019081526020016000206003015411156111ee5760008181526005602052604090206003015493509150815b50806111f981611e6d565b91505061118c565b506000818152600560205260409020600381015460019091018054839290829061122a90611ed6565b80601f016020809104026020016040519081016040528092919081815260200182805461125690611ed6565b80156112a35780601f10611278576101008083540402835291602001916112a3565b820191906000526020600020905b81548152906001019060200180831161128657829003601f168201915b505050505091509450945094505050909192565b60025460009060ff161580156112cd5750600754155b156112d85750600090565b60025460ff16156112e95750600190565b50600290565b6000546001600160a01b031633146113195760405162461bcd60e51b815260040161042190611e94565b60005b6007548110156113a257600560006007838154811061133d5761133d61201e565b9060005260206000200154815260200190815260200160002060008082016000905560018201600061136f9190611967565b61137d600283016000611967565b5060006003820155600401805460ff191690558061139a81611e6d565b91505061131c565b506113af600760006119a1565b6002805460ff191690556000600381905560045560408051808201909152601081526f2232b330bab63a1022b632b1ba34b7b760811b60208201526001906113f79082611f5f565b50565b600754606090819081908190806001600160401b0381111561141e5761141e6119ed565b604051908082528060200260200182016040528015611447578160200160208202803683370190505b509450806001600160401b03811115611462576114626119ed565b60405190808252806020026020018201604052801561149557816020015b60608152602001906001900390816114805790505b509350806001600160401b038111156114b0576114b06119ed565b6040519080825280602002602001820160405280156114e357816020015b60608152602001906001900390816114ce5790505b509250806001600160401b038111156114fe576114fe6119ed565b604051908082528060200260200182016040528015611527578160200160208202803683370190505b50915060005b8181101561174b5760006007828154811061154a5761154a61201e565b9060005260206000200154905060056000828152602001908152602001600020600001548783815181106115805761158061201e565b6020026020010181815250506005600082815260200190815260200160002060010180546115ad90611ed6565b80601f01602080910402602001604051908101604052809291908181526020018280546115d990611ed6565b80156116265780601f106115fb57610100808354040283529160200191611626565b820191906000526020600020905b81548152906001019060200180831161160957829003601f168201915b505050505086838151811061163d5761163d61201e565b602002602001018190525060056000828152602001908152602001600020600201805461166990611ed6565b80601f016020809104026020016040519081016040528092919081815260200182805461169590611ed6565b80156116e25780601f106116b7576101008083540402835291602001916116e2565b820191906000526020600020905b8154815290600101906020018083116116c557829003601f168201915b50505050508583815181106116f9576116f961201e565b6020026020010181905250600560008281526020019081526020016000206003015484838151811061172d5761172d61201e565b6020908102919091010152508061174381611e6d565b91505061152d565b505090919293565b6000546001600160a01b0316331461177d5760405162461bcd60e51b815260040161042190611e94565b60005b8151811015610613576006600083838151811061179f5761179f61201e565b6020908102919091018101516001600160a01b031682528101919091526040016000205460ff166118ad5760405180606001604052806001151581526020016000151581526020016000815250600660008484815181106118025761180261201e565b6020908102919091018101516001600160a01b03168252818101929092526040908101600020835181549385015161ffff1990941690151561ff00191617610100931515939093029290921782559190910151600190910155815182908290811061186f5761186f61201e565b60200260200101516001600160a01b03167fb6be2187d059cc2a55fe29e0e503b566e1e0f8c8780096e185429350acffd3dd60405160405180910390a25b806118b781611e6d565b915050611780565b6000546001600160a01b031633146118e95760405162461bcd60e51b815260040161042190611e94565b60025460ff166119325760405162461bcd60e51b8152602060048201526014602482015273566f74696e67206973206e6f742061637469766560601b6044820152606401610421565b6002805460ff191690556040517f06511302781925bd62e07aef472aa49b9a036f97fcaf7bd34cabe20ac447679190600090a1565b50805461197390611ed6565b6000825580601f10611983575050565b601f0160209004906000526020600020908101906113f791906119bb565b50805460008255906000526020600020908101906113f791905b5b808211156119d057600081556001016119bc565b5090565b6000602082840312156119e657600080fd5b5035919050565b634e487b7160e01b600052604160045260246000fd5b604051601f8201601f191681016001600160401b0381118282101715611a2b57611a2b6119ed565b604052919050565b600082601f830112611a4457600080fd5b81356001600160401b03811115611a5d57611a5d6119ed565b611a70601f8201601f1916602001611a03565b818152846020838601011115611a8557600080fd5b816020850160208301376000918101602001919091529392505050565b600060208284031215611ab457600080fd5b81356001600160401b03811115611aca57600080fd5b611ad684828501611a33565b949350505050565b60008060408385031215611af157600080fd5b82356001600160401b0380821115611b0857600080fd5b611b1486838701611a33565b93506020850135915080821115611b2a57600080fd5b50611b3785828601611a33565b9150509250929050565b600081518084526020808501945080840160005b83811015611b7157815187529582019590820190600101611b55565b509495945050505050565b602081526000611b8f6020830184611b41565b9392505050565b6000815180845260005b81811015611bbc57602081850181015186830182015201611ba0565b506000602082860101526020601f19601f83011685010191505092915050565b85815260a060208201526000611bf560a0830187611b96565b8281036040840152611c078187611b96565b606084019590955250509015156080909101529392505050565b848152608060208201526000611c3a6080830186611b96565b8281036040840152611c4c8186611b96565b91505082606083015295945050505050565b80356001600160a01b0381168114611c7557600080fd5b919050565b600060208284031215611c8c57600080fd5b611b8f82611c5e565b600081518084526020808501808196508360051b8101915082860160005b85811015611cdd578284038952611ccb848351611b96565b98850198935090840190600101611cb3565b5091979650505050505050565b606081526000611cfd6060830186611b41565b8281036020840152611d0f8186611c95565b90508281036040840152611d238185611b41565b9695505050505050565b602081526000611b8f6020830184611b96565b838152606060208201526000611d596060830185611b96565b9050826040830152949350505050565b608081526000611d7c6080830187611b41565b8281036020840152611d8e8187611c95565b90508281036040840152611da28186611c95565b90508281036060840152611db68185611b41565b979650505050505050565b60006020808385031215611dd457600080fd5b82356001600160401b0380821115611deb57600080fd5b818501915085601f830112611dff57600080fd5b813581811115611e1157611e116119ed565b8060051b9150611e22848301611a03565b8181529183018401918481019088841115611e3c57600080fd5b938501935b83851015611e6157611e5285611c5e565b82529385019390850190611e41565b98975050505050505050565b600060018201611e8d57634e487b7160e01b600052601160045260246000fd5b5060010190565b60208082526022908201527f4f6e6c792061646d696e2063616e20706572666f726d2074686973206163746960408201526137b760f11b606082015260800190565b600181811c90821680611eea57607f821691505b602082108103611f0a57634e487b7160e01b600052602260045260246000fd5b50919050565b601f821115611f5a57600081815260208120601f850160051c81016020861015611f375750805b601f850160051c820191505b81811015611f5657828155600101611f43565b5050505b505050565b81516001600160401b03811115611f7857611f786119ed565b611f8c81611f868454611ed6565b84611f10565b602080601f831160018114611fc15760008415611fa95750858301515b600019600386901b1c1916600185901b178555611f56565b600085815260208120601f198616915b82811015611ff057888601518255948401946001909101908401611fd1565b508582101561200e5787850151600019600388901b60f8161c191681555b5050505050600190811b01905550565b634e487b7160e01b600052603260045260246000fdfea264697066735822122090291da64f4c42f5e66f7e37bc53a52f3f29573d79271ef03becff1e9b36379464736f6c63430008130033",
  "linkReferences": {},
  "deployedLinkReferences": {}
}