{
  "_format": "hh-sol-artifact-1",
  "contractName": "VotingContract",
  "sourceName": "contracts/VotingContract.sol",
  "abi": [
    {
      "inputs": [],
      "stateMutability": "nonpayable",
      "type": "constructor"
    },
    {
      "anonymous": false,
      "inputs": [
        {
          "indexed": true,
          "internalType": "uint256",
          "name": "candidateId",
          "type": "uint256"
        },
        {
          "indexed": false,
          "internalType": "string",
          "name": "name",
          "type": "string"
        }
      ],
      "name": "CandidateAdded",
      "type": "event"
    },
    {
      "anonymous": false,
      "inputs": [
        {
          "indexed": true,
          "internalType": "address",
          "name": "voter",
          "type": "address"
        },
        {
          "indexed": true,
          "internalType": "uint256",
          "name": "candidateId",
          "type": "uint256"
        }
      ],
      "name": "VoteCast",
      "type": "event"
    },
    {
      "anonymous": false,
      "inputs": [
        {
          "indexed": true,
          "internalType": "address",
          "name": "voter",
          "type": "address"
        }
      ],
      "name": "VoterRegistered",
      "type": "event"
    },
    {
      "anonymous": false,
      "inputs": [],
      "name": "VotingStarted",
      "type": "event"
    },
    {
      "anonymous": false,
      "inputs": [],
      "name": "VotingStopped",
      "type": "event"
    },
    {
      "inputs": [
        {
          "internalType": "string",
          "name": "_name",
          "type": "string"
        },
        {
          "internalType": "string",
          "name": "_description",
          "type": "string"
        }
      ],
      "name": "addCandidate",
      "outputs": [],
      "stateMutability": "nonpayable",
      "type": "function"
    },
    {
      "inputs": [],
      "name": "admin",
      "outputs": [
        {
          "internalType": "address",
          "name": "",
          "type": "address"
        }
      ],
      "stateMutability": "view",
      "type": "function"
    },
    {
      "inputs": [
        {
          "internalType": "uint256",
          "name": "",
          "type": "uint256"
        }
      ],
      "name": "candidateIds",
      "outputs": [
        {
          "internalType": "uint256",
          "name": "",
          "type": "uint256"
        }
      ],
      "stateMutability": "view",
      "type": "function"
    },
    {
      "inputs": [
        {
          "internalType": "uint256",
          "name": "",
          "type": "uint256"
        }
      ],
      "name": "candidates",
      "outputs": [
        {
          "internalType": "uint256",
          "name": "id",
          "type": "uint256"
        },
        {
          "internalType": "string",
          "name": "name",
          "type": "string"
        },
        {
          "internalType": "string",
          "name": "description",
          "type": "string"
        },
        {
          "internalType": "uint256",
          "name": "voteCount",
          "type": "uint256"
        },
        {
          "internalType": "bool",
          "name": "exists",
          "type": "bool"
        }
      ],
      "stateMutability": "view",
      "type": "function"
    },
    {
      "inputs": [],
      "name": "electionName",
      "outputs": [
        {
          "internalType": "string",
          "name": "",
          "type": "string"
        }
      ],
      "stateMutability": "view",
      "type": "function"
    },
    {
      "inputs": [],
      "name": "getAllCandidates",
      "outputs": [
        {
          "internalType": "uint256[]",
          "name": "",
          "type": "uint256[]"
        }
      ],
      "stateMutability": "view",
      "type": "function"
    },
    {
      "inputs": [],
      "name": "getAllCandidatesDetails",
      "outputs": [
        {
          "internalType": "uint256[]",
          "name": "ids",
          "type": "uint256[]"
        },
        {
          "internalType": "string[]",
          "name": "names",
          "type": "string[]"
        },
        {
          "internalType": "string[]",
          "name": "descriptions",
          "type": "string[]"
        },
        {
          "internalType": "uint256[]",
          "name": "voteCounts",
          "type": "uint256[]"
        }
      ],
      "stateMutability": "view",
      "type": "function"
    },
    {
      "inputs": [],
      "name": "getAllVoters",
      "outputs": [
        {
          "internalType": "address[]",
          "name": "",
          "type": "address[]"
        }
      ],
      "stateMutability": "view",
      "type": "function"
    },
    {
      "inputs": [
        {
          "internalType": "uint256",
          "name": "_candidateId",
          "type": "uint256"
        }
      ],
      "name": "getCandidate",
      "outputs": [
        {
          "internalType": "uint256",
          "name": "id",
          "type": "uint256"
        },
        {
          "internalType": "string",
          "name": "name",
          "type": "string"
        },
        {
          "internalType": "string",
          "name": "description",
          "type": "string"
        },
        {
          "internalType": "uint256",
          "name": "voteCount",
          "type": "uint256"
        }
      ],
      "stateMutability": "view",
      "type": "function"
    },
    {
      "inputs": [],
      "name": "getCandidateCount",
      "outputs": [
        {
          "internalType": "uint256",
          "name": "",
          "type": "uint256"
        }
      ],
      "stateMutability": "view",
      "type": "function"
    },
    {
      "inputs": [],
      "name": "getResults",
      "outputs": [
        {
          "internalType": "uint256[]",
          "name": "ids",
          "type": "uint256[]"
        },
        {
          "internalType": "string[]",
          "name": "names",
          "type": "string[]"
        },
        {
          "internalType": "uint256[]",
          "name": "voteCounts",
          "type": "uint256[]"
        }
      ],
      "stateMutability": "view",
      "type": "function"
    },
    {
      "inputs": [],
      "name": "getVoterCount",
      "outputs": [
        {
          "internalType": "uint256",
          "name": "",
          "type": "uint256"
        }
      ],
      "stateMutability": "view",
      "type": "function"
    },
    {
      "inputs": [
        {
          "internalType": "address",
          "name": "_voter",
          "type": "address"
        }
      ],
      "name": "getVoterInfo",
      "outputs": [
        {
          "internalType": "bool",
          "name": "isRegistered",
          "type": "bool"
        },
        {
          "internalType": "bool",
          "name": "hasVoted",
          "type": "bool"
        },
        {
          "internalType": "uint256",
          "name": "votedFor",
          "type": "uint256"
        }
      ],
      "stateMutability": "view",
      "type": "function"
    },
    {
      "inputs": [],
      "name": "getWinner",
      "outputs": [
        {
          "internalType": "uint256",
          "name": "winnerId",
          "type": "uint256"
        },
        {
          "internalType": "string",
          "name": "winnerName",
          "type": "string"
        },
        {
          "internalType": "uint256",
          "name": "winnerVotes",
          "type": "uint256"
        }
      ],
      "stateMutability": "view",
      "type": "function"
    },
    {
      "inputs": [],
      "name": "owner",
      "outputs": [
        {
          "internalType": "address",
          "name": "",
          "type": "address"
        }
      ],
      "stateMutability": "view",
      "type": "function"
    },
    {
      "inputs": [
        {
          "internalType": "address[]",
          "name": "_voters",
          "type": "address[]"
        }
      ],
      "name": "registerMultipleVoters",
      "outputs": [],
      "stateMutability": "nonpayable",
      "type": "function"
    },
    {
      "inputs": [
        {
          "internalType": "address",
          "name": "_voter",
          "type": "address"
        }
      ],
      "name": "registerVoter",
      "outputs": [],
      "stateMutability": "nonpayable",
      "type": "function"
    },
    {
      "inputs": [],
      "name": "resetContract",
      "outputs": [],
      "stateMutability": "nonpayable",
      "type": "function"
    },
    {
      "inputs": [
        {
          "internalType": "string",
          "name": "_name",
          "type": "string"
        }
      ],
      "name": "setElectionName",
      "outputs": [],
      "stateMutability": "nonpayable",
      "type": "function"
    },
    {
      "inputs": [],
      "name": "startVoting",
      "outputs": [],
      "stateMutability": "nonpayable",
      "type": "function"
    },
    {
      "inputs": [],
      "name": "stopVoting",
      "outputs": [],
      "stateMutability": "nonpayable",
      "type": "function"
    },
    {
      "inputs": [],
      "name": "totalVotes",
      "outputs": [
        {
          "internalType": "uint256",
          "name": "",
          "type": "uint256"
        }
      ],
      "stateMutability": "view",
      "type": "function"
    },
    {
      "inputs": [
        {
          "internalType": "uint256",
          "name": "_candidateId",
          "type": "uint256"
        }
      ],
      "name": "vote",
      "outputs": [],
      "stateMutability": "nonpayable",
      "type": "function"
    },
    {
      "inputs": [
        {
          "internalType": "uint256",
          "name": "",
          "type": "uint256"
        }
      ],
      "name": "voterList",
      "outputs": [
        {
          "internalType": "address",
          "name": "",
          "type": "address"
        }
      ],
      "stateMutability": "view",
      "type": "function"
    },
    {
      "inputs": [
        {
          "internalType": "address",
          "name": "",
          "type": "address"
        }
      ],
      "name": "voters",
      "outputs": [
        {
          "internalType": "bool",
          "name": "isRegistered",
          "type": "bool"
        },
        {
          "internalType": "bool",
          "name": "hasVoted",
          "type": "bool"
        },
        {
          "internalType": "uint256",
          "name": "votedFor",
          "type": "uint256"
        }
      ],
      "stateMutability": "view",
      "type": "function"
    },
    {
      "inputs": [],
      "name": "votingActive",
      "outputs": [
        {
          "internalType": "bool",
          "name": "",
          "type": "bool"
        }
      ],
      "stateMutability": "view",
      "type": "function"
    },
    {
      "inputs": [],
      "name": "workflowStatus",
      "outputs": [
        {
          "internalType": "uint256",
          "name": "",
          "type": "uint256"
        }
      ],
      "stateMutability": "view",
      "type": "function"
    }
  ],
  "bytecode": "0x60806040523480156200001157600080fd5b50600080546001600160a01b0319163317905560408051808201909152601081526f2232b330bab63a1022b632b1ba34b7b760811b60208201526001906200005a90826200011a565b506002805460ff1916905560006003819055600455620001e6565b634e487b7160e01b600052604160045260246000fd5b600181811c90821680620000a057607f821691505b602082108103620000c157634e487b7160e01b600052602260045260246000fd5b50919050565b601f8211156200011557600081815260208120601f850160051c81016020861015620000f05750805b601f850160051c820191505b818110156200011157828155600101620000fc565b5050505b505050565b81516001600160401b0381111562000136576200013662000075565b6200014e816200014784546200008b565b84620000c7565b602080601f8311600181146200018657600084156200016d5750858301515b600019600386901b1c1916600185901b17855562000111565b600085815260208120601f198616915b82811015620001b75788860151825594840194600190910190840162000196565b5085821015620001d65787850151600019600388901b60f8161c191681555b5050505050600190811b01905550565b6122cc80620001f66000396000f3fe608060405234801561001057600080fd5b50600436106101a95760003560e01c8063408e2727116100f9578063a1edffa211610097578063cba5cf9911610071578063cba5cf991461040e578063f225c1f814610426578063f851a44014610439578063fab2f86b1461044c57600080fd5b8063a1edffa2146103ca578063a3ec138d146103d2578063b181a8fc1461040657600080fd5b806385e8e7a7116100d357806385e8e7a7146103135780638da5cb5b146103285780638e7ea5b2146103395780639ed1f2551461035057600080fd5b8063408e2727146102b45780634717f97c146102d157806350e2e8af146102e857600080fd5b806326541b56116101665780633477ee2e116101405780633477ee2e1461024557806335b8e8201461026957806335bbe70e1461028c57806338db6dd3146102a157600080fd5b806326541b56146102155780632e6997fe1461022857806330a563471461023d57600080fd5b80630121b93f146101ae57806303016130146101c3578063031a1374146101e95780630d15fd77146101fc57806311174a29146102055780631ec6b60a1461020d575b600080fd5b6101c16101bc366004611be9565b610454565b005b6101d66101d1366004611be9565b610641565b6040519081526020015b60405180910390f35b6101c16101f7366004611cb7565b610662565b6101d660035481565b6008546101d6565b6101c161069c565b6101c1610223366004611cf3565b6107a0565b610230610994565b6040516101e09190611d91565b6007546101d6565b610258610253366004611be9565b6109ec565b6040516101e0959493929190611df1565b61027c610277366004611be9565b610b2f565b6040516101e09493929190611e36565b610294610d1e565b6040516101e09190611e73565b6101c16102af366004611edc565b610d7f565b6002546102c19060ff1681565b60405190151581526020016101e0565b6102d9610edd565b6040516101e093929190611f4c565b6102fb6102f6366004611be9565b61118a565b6040516001600160a01b0390911681526020016101e0565b61031b6111b4565b6040516101e09190611f8f565b6000546001600160a01b03166102fb565b610341611242565b6040516101e093929190611fa2565b6103ad61035e366004611edc565b6001600160a01b03166000908152600660209081526040918290208251606081018452815460ff8082161515808452610100909204161515938201849052600190920154930183905292909190565b6040805193151584529115156020840152908201526060016101e0565b6101d6611406565b6103ad6103e0366004611edc565b6006602052600090815260409020805460019091015460ff808316926101009004169083565b6101c161143e565b6104166115bd565b6040516101e09493929190611fcb565b6101c1610434366004612023565b611916565b6000546102fb906001600160a01b031681565b6101c1611ad4565b3360009081526006602052604090205460ff166104af5760405162461bcd60e51b8152602060048201526014602482015273159bdd195c881b9bdd081c9959da5cdd195c995960621b60448201526064015b60405180910390fd5b60025460ff166104f85760405162461bcd60e51b8152602060048201526014602482015273566f74696e67206973206e6f742061637469766560601b60448201526064016104a6565b33600090815260066020526040902054610100900460ff161561055d5760405162461bcd60e51b815260206004820152601760248201527f566f7465722068617320616c726561647920766f74656400000000000000000060448201526064016104a6565b60008181526005602052604090206004015460ff166105b95760405162461bcd60e51b815260206004820152601860248201527710d85b991a59185d1948191bd95cc81b9bdd08195e1a5cdd60421b60448201526064016104a6565b336000908152600660209081526040808320805461ff001916610100178155600101849055838352600590915281206003018054916105f7836120cf565b90915550506003805490600061060c836120cf565b9091555050604051819033907fa36cc2bebb74db33e9f88110a07ef56e1b31b24b4c4f51b54b1664266e29f45b90600090a350565b6007818154811061065157600080fd5b600091825260209091200154905081565b6000546001600160a01b0316331461068c5760405162461bcd60e51b81526004016104a6906120f6565b600161069882826121c1565b5050565b6000546001600160a01b031633146106c65760405162461bcd60e51b81526004016104a6906120f6565b60025460ff16156107195760405162461bcd60e51b815260206004820152601860248201527f566f74696e6720697320616c726561647920616374697665000000000000000060448201526064016104a6565b6007546107685760405162461bcd60e51b815260206004820152601860248201527f4e6f2063616e646964617465732072656769737465726564000000000000000060448201526064016104a6565b6002805460ff191660011790556040517f877e2548498f42b7975a186b94ef1d32c86d420b7b806dd2be2bea293b89590490600090a1565b6000546001600160a01b031633146107ca5760405162461bcd60e51b81526004016104a6906120f6565b60025460ff16156108305760405162461bcd60e51b815260206004820152602a60248201527f43616e6e6f74206164642063616e6469646174657320647572696e672061637460448201526969766520766f74696e6760b01b60648201526084016104a6565b60008251116108815760405162461bcd60e51b815260206004820152601e60248201527f43616e646964617465206e616d652063616e6e6f7420626520656d707479000060448201526064016104a6565b60048054906000610891836120cf565b90915550506040805160a08101825260045480825260208083018681528385018690526000606085018190526001608086018190529381526005909252939020825181559251919291908201906108e890826121c1565b50604082015160028201906108fd90826121c1565b50606082015160038201556080909101516004918201805460ff191691151591909117905554600780546001810182556000919091527fa66cc928b5edb82af9bd49922954155ab7b0942694bea4ce44661d9a8736c688018190556040517fe83b2a43e7e82d975c8a0a6d2f045153c869e111136a34d1889ab7b598e396a390610988908590611f8f565b60405180910390a25050565b606060078054806020026020016040519081016040528092919081815260200182805480156109e257602002820191906000526020600020905b8154815260200190600101908083116109ce575b5050505050905090565b60056020526000908152604090208054600182018054919291610a0e90612138565b80601f0160208091040260200160405190810160405280929190818152602001828054610a3a90612138565b8015610a875780601f10610a5c57610100808354040283529160200191610a87565b820191906000526020600020905b815481529060010190602001808311610a6a57829003601f168201915b505050505090806002018054610a9c90612138565b80601f0160208091040260200160405190810160405280929190818152602001828054610ac890612138565b8015610b155780601f10610aea57610100808354040283529160200191610b15565b820191906000526020600020905b815481529060010190602001808311610af857829003601f168201915b50505050600383015460049093015491929160ff16905085565b6000818152600560205260408120600401546060908190839060ff16610b925760405162461bcd60e51b815260206004820152601860248201527710d85b991a59185d1948191bd95cc81b9bdd08195e1a5cdd60421b60448201526064016104a6565b6000600560008781526020019081526020016000206040518060a001604052908160008201548152602001600182018054610bcc90612138565b80601f0160208091040260200160405190810160405280929190818152602001828054610bf890612138565b8015610c455780601f10610c1a57610100808354040283529160200191610c45565b820191906000526020600020905b815481529060010190602001808311610c2857829003601f168201915b50505050508152602001600282018054610c5e90612138565b80601f0160208091040260200160405190810160405280929190818152602001828054610c8a90612138565b8015610cd75780601f10610cac57610100808354040283529160200191610cd7565b820191906000526020600020905b815481529060010190602001808311610cba57829003601f168201915b5050509183525050600382015460208083019190915260049092015460ff161515604091820152825191830151908301516060909301519199909850919650945092505050565b606060088054806020026020016040519081016040528092919081815260200182805480156109e257602002820191906000526020600020905b81546001600160a01b03168152600190910190602001808311610d58575050505050905090565b6000546001600160a01b03163314610da95760405162461bcd60e51b81526004016104a6906120f6565b6001600160a01b03811660009081526006602052604090205460ff1615610e125760405162461bcd60e51b815260206004820152601860248201527f566f74657220616c72656164792072656769737465726564000000000000000060448201526064016104a6565b604080516060810182526001808252600060208084018281528486018381526001600160a01b038816808552600690935286842095518654925161ffff1990931690151561ff0019161761010092151592909202919091178555519383019390935560088054928301815581527ff3f7a9fe364faab93b216da50a3214154f22a0a2b415b23a84c8169e8b636ee390910180546001600160a01b03191683179055915190917fb6be2187d059cc2a55fe29e0e503b566e1e0f8c8780096e185429350acffd3dd91a250565b6002546060908190819060ff161580610f0057506000546001600160a01b031633145b610f455760405162461bcd60e51b8152602060048201526016602482015275566f74696e67206973207374696c6c2061637469766560501b60448201526064016104a6565b600754806001600160401b03811115610f6057610f60611c02565b604051908082528060200260200182016040528015610f89578160200160208202803683370190505b509350806001600160401b03811115610fa457610fa4611c02565b604051908082528060200260200182016040528015610fd757816020015b6060815260200190600190039081610fc25790505b509250806001600160401b03811115610ff257610ff2611c02565b60405190808252806020026020018201604052801561101b578160200160208202803683370190505b50915060005b818110156111835760006007828154811061103e5761103e612280565b90600052602060002001549050600560008281526020019081526020016000206000015486838151811061107457611074612280565b6020026020010181815250506005600082815260200190815260200160002060010180546110a190612138565b80601f01602080910402602001604051908101604052809291908181526020018280546110cd90612138565b801561111a5780601f106110ef5761010080835404028352916020019161111a565b820191906000526020600020905b8154815290600101906020018083116110fd57829003601f168201915b505050505085838151811061113157611131612280565b6020026020010181905250600560008281526020019081526020016000206003015484838151811061116557611165612280565b6020908102919091010152508061117b816120cf565b915050611021565b5050909192565b6008818154811061119a57600080fd5b6000918252602090912001546001600160a01b0316905081565b600180546111c190612138565b80601f01602080910402602001604051908101604052809291908181526020018280546111ed90612138565b801561123a5780601f1061120f5761010080835404028352916020019161123a565b820191906000526020600020905b81548152906001019060200180831161121d57829003601f168201915b505050505081565b600254600090606090829060ff16156112965760405162461bcd60e51b8152602060048201526016602482015275566f74696e67206973207374696c6c2061637469766560501b60448201526064016104a6565b6007546112d55760405162461bcd60e51b815260206004820152600d60248201526c4e6f2063616e6469646174657360981b60448201526064016104a6565b60008060005b600754811015611350576000600782815481106112fa576112fa612280565b90600052602060002001549050836005600083815260200190815260200160002060030154111561133d5760008181526005602052604090206003015493509150815b5080611348816120cf565b9150506112db565b506000818152600560205260409020600381015460019091018054839290829061137990612138565b80601f01602080910402602001604051908101604052809291908181526020018280546113a590612138565b80156113f25780601f106113c7576101008083540402835291602001916113f2565b820191906000526020600020905b8154815290600101906020018083116113d557829003601f168201915b505050505091509450945094505050909192565b60025460009060ff1615801561141c5750600754155b156114275750600090565b60025460ff16156114385750600190565b50600290565b6000546001600160a01b031633146114685760405162461bcd60e51b81526004016104a6906120f6565b60005b6007548110156114f157600560006007838154811061148c5761148c612280565b906000526020600020015481526020019081526020016000206000808201600090556001820160006114be9190611b7c565b6114cc600283016000611b7c565b5060006003820155600401805460ff19169055806114e9816120cf565b91505061146b565b506114fe60076000611bb6565b60005b60085481101561156557600660006008838154811061152257611522612280565b60009182526020808320909101546001600160a01b031683528201929092526040018120805461ffff19168155600101558061155d816120cf565b915050611501565b5061157260086000611bb6565b6002805460ff191690556000600381905560045560408051808201909152601081526f2232b330bab63a1022b632b1ba34b7b760811b60208201526001906115ba90826121c1565b50565b600754606090819081908190806001600160401b038111156115e1576115e1611c02565b60405190808252806020026020018201604052801561160a578160200160208202803683370190505b509450806001600160401b0381111561162557611625611c02565b60405190808252806020026020018201604052801561165857816020015b60608152602001906001900390816116435790505b509350806001600160401b0381111561167357611673611c02565b6040519080825280602002602001820160405280156116a657816020015b60608152602001906001900390816116915790505b509250806001600160401b038111156116c1576116c1611c02565b6040519080825280602002602001820160405280156116ea578160200160208202803683370190505b50915060005b8181101561190e5760006007828154811061170d5761170d612280565b90600052602060002001549050600560008281526020019081526020016000206000015487838151811061174357611743612280565b60200260200101818152505060056000828152602001908152602001600020600101805461177090612138565b80601f016020809104026020016040519081016040528092919081815260200182805461179c90612138565b80156117e95780601f106117be576101008083540402835291602001916117e9565b820191906000526020600020905b8154815290600101906020018083116117cc57829003601f168201915b505050505086838151811061180057611800612280565b602002602001018190525060056000828152602001908152602001600020600201805461182c90612138565b80601f016020809104026020016040519081016040528092919081815260200182805461185890612138565b80156118a55780601f1061187a576101008083540402835291602001916118a5565b820191906000526020600020905b81548152906001019060200180831161188857829003601f168201915b50505050508583815181106118bc576118bc612280565b602002602001018190525060056000828152602001908152602001600020600301548483815181106118f0576118f0612280565b60209081029190910101525080611906816120cf565b9150506116f0565b505090919293565b6000546001600160a01b031633146119405760405162461bcd60e51b81526004016104a6906120f6565b60005b8151811015610698576006600083838151811061196257611962612280565b6020908102919091018101516001600160a01b031682528101919091526040016000205460ff16611ac25760405180606001604052806001151581526020016000151581526020016000815250600660008484815181106119c5576119c5612280565b6020908102919091018101516001600160a01b03168252818101929092526040908101600020835181549385015161ffff1990941690151561ff001916176101009315159390930292909217825591909101516001909101558151600890839083908110611a3557611a35612280565b60209081029190910181015182546001810184556000938452919092200180546001600160a01b0319166001600160a01b039092169190911790558151829082908110611a8457611a84612280565b60200260200101516001600160a01b03167fb6be2187d059cc2a55fe29e0e503b566e1e0f8c8780096e185429350acffd3dd60405160405180910390a25b80611acc816120cf565b915050611943565b6000546001600160a01b03163314611afe5760405162461bcd60e51b81526004016104a6906120f6565b60025460ff16611b475760405162461bcd60e51b8152602060048201526014602482015273566f74696e67206973206e6f742061637469766560601b60448201526064016104a6565b6002805460ff191690556040517f06511302781925bd62e07aef472aa49b9a036f97fcaf7bd34cabe20ac447679190600090a1565b508054611b8890612138565b6000825580601f10611b98575050565b601f0160209004906000526020600020908101906115ba9190611bd0565b50805460008255906000526020600020908101906115ba91905b5b80821115611be55760008155600101611bd1565b5090565b600060208284031215611bfb57600080fd5b5035919050565b634e487b7160e01b600052604160045260246000fd5b604051601f8201601f191681016001600160401b0381118282101715611c4057611c40611c02565b604052919050565b600082601f830112611c5957600080fd5b81356001600160401b03811115611c7257611c72611c02565b611c85601f8201601f1916602001611c18565b818152846020838601011115611c9a57600080fd5b816020850160208301376000918101602001919091529392505050565b600060208284031215611cc957600080fd5b81356001600160401b03811115611cdf57600080fd5b611ceb84828501611c48565b949350505050565b60008060408385031215611d0657600080fd5b82356001600160401b0380821115611d1d57600080fd5b611d2986838701611c48565b93506020850135915080821115611d3f57600080fd5b50611d4c85828601611c48565b9150509250929050565b600081518084526020808501945080840160005b83811015611d8657815187529582019590820190600101611d6a565b509495945050505050565b602081526000611da46020830184611d56565b9392505050565b6000815180845260005b81811015611dd157602081850181015186830182015201611db5565b506000602082860101526020601f19601f83011685010191505092915050565b85815260a060208201526000611e0a60a0830187611dab565b8281036040840152611e1c8187611dab565b606084019590955250509015156080909101529392505050565b848152608060208201526000611e4f6080830186611dab565b8281036040840152611e618186611dab565b91505082606083015295945050505050565b6020808252825182820181905260009190848201906040850190845b81811015611eb45783516001600160a01b031683529284019291840191600101611e8f565b50909695505050505050565b80356001600160a01b0381168114611ed757600080fd5b919050565b600060208284031215611eee57600080fd5b611da482611ec0565b600081518084526020808501808196508360051b8101915082860160005b85811015611f3f578284038952611f2d848351611dab565b98850198935090840190600101611f15565b5091979650505050505050565b606081526000611f5f6060830186611d56565b8281036020840152611f718186611ef7565b90508281036040840152611f858185611d56565b9695505050505050565b602081526000611da46020830184611dab565b838152606060208201526000611fbb6060830185611dab565b9050826040830152949350505050565b608081526000611fde6080830187611d56565b8281036020840152611ff08187611ef7565b905082810360408401526120048186611ef7565b905082810360608401526120188185611d56565b979650505050505050565b6000602080838503121561203657600080fd5b82356001600160401b038082111561204d57600080fd5b818501915085601f83011261206157600080fd5b81358181111561207357612073611c02565b8060051b9150612084848301611c18565b818152918301840191848101908884111561209e57600080fd5b938501935b838510156120c3576120b485611ec0565b825293850193908501906120a3565b98975050505050505050565b6000600182016120ef57634e487b7160e01b600052601160045260246000fd5b5060010190565b60208082526022908201527f4f6e6c792061646d696e2063616e20706572666f726d2074686973206163746960408201526137b760f11b606082015260800190565b600181811c9082168061214c57607f821691505b60208210810361216c57634e487b7160e01b600052602260045260246000fd5b50919050565b601f8211156121bc57600081815260208120601f850160051c810160208610156121995750805b601f850160051c820191505b818110156121b8578281556001016121a5565b5050505b505050565b81516001600160401b038111156121da576121da611c02565b6121ee816121e88454612138565b84612172565b602080601f831160018114612223576000841561220b5750858301515b600019600386901b1c1916600185901b1785556121b8565b600085815260208120601f198616915b8281101561225257888601518255948401946001909101908401612233565b50858210156122705787850151600019600388901b60f8161c191681555b5050505050600190811b01905550565b634e487b7160e01b600052603260045260246000fdfea26469706673582212204dd8d4d2edc19c026e3d390cb6f0a1b0a22a735332748855e563fa41e31fedc064736f6c63430008130033",
  "linkReferences": {},
  "deployedLinkReferences": {}
}